:0A00000002058181217F16DFFE2238
:1000130061E5753B00753C0174FFF53DF53E851FB9
:1000230013852014853715853816C2A2C2A5C2A62A
:10003300E51E451D60022121E51445137058E53C7A
:10004300853BF091FF006B0000005800010083FF27
:10005300FF00000099853913853A14E4F53BF53C1C
:10006300C2A4D2A7D2A2802E85371385381474FF79
:10007300F53BF53CC2A7C2A0D2A5D2A4D2A280165A
:10008300851F13852014753B00753C01C2A2C2A5D0
:10009300D2A0D2A4D2A7E51645157050E53E853D02
:1000A300F091FF00C9000000B6000100DDFFFF0072
:1000B3000000EF853915853A16E4F53DF53EC2A3F8
:1000C300D2A6D2A1802685371585381674FFF53D53
:1000D300F53EC2A6D2A3D2A18012851F1585201694
:1000E300753D00753E01C2A1D2A3D2A685154585F3
:1000F3001646E4754A32F549F548F547AB16AA1595
:10010300AD14AC13AF14AE133122E5141514700201
:100113001513E51615166002013315150133228CEC
:10012300418D428A438B44AD07AC06E4FFFE7191D7
:10013300AD42AC417F017E007191AD44AC437F027F
:100143007E007191AD46AC457F037E007191E4FF63
:10015300FEFDFCAB4AAA49A948A847D391EE404B00
:100163007B017A007D017C00E4FFFE7137AA06ABB8
:10017300077F01120331AA06AB077F02120331AADC
:1001830006AB07AD03AC027F037E007137AA06AB53
:1001930007E54A24FFF54AE54934FFF549E54834C4
:1001A300FFF548E54734FFF54780A322753B00750B
:1001B3003C01E51E6401451D7074E53C453B70033D
:1001C30075A01FE53C6401453B700375A0E720B7AC
:1001D3001B918920B716053CE53C7002053B640280
:1001E300453B7005F53B753C0130B7FD20B61F91CB
:1001F3008920B61AE53C153C7002153BE53CB4FF7B
:100203000AE53BB4FF05E4F53BF53C30B6FD754527
:10021300FF7546F5E4754A01F549F548F5477BF561
:100223007AFF7DF57CFF7FF57EFF3122808475A008
:10023300FF228E3B8F3CE4F53DF53E20B71C1204B4
:100243008920B716053EE53E7002053D6464453DD1
:100253007005F53D753E6330B7FD20B62012048965
:1002630020B61AE53E153E7002153DE53EB4FF0A81
:10027300E53DB4FF05E4F53DF53E30B6FD20B50A96
:10028300918920B50520B52E80FBE53C25E024317E
:10029300F8A63D08A63E7545FF7546F5E4754A0187
:1002A300F549F548F547AB36AA35AD34AC33AF3233
:1002B300AE313122808522EF8EF091FF02EF0000F4
:1002C30002F5000102FB000203010003030700041F
:1002D300030D00050313000603190007031F00089D
:1002E30003250009032BFFFF0000033085084FAFF0
:1002F3004F2285094FAF4F22850A4FAF4F22850BFF
:100303004FAF4F22850C4FAF4F22850D4FAF4F227A
:10031300850E4FAF4F22850F4FAF4F2285104FAF42
:100323004F2285114FAF4F2285124FAF4F22AD039E
:10033300AC027E008E4B8F4C8C4D8D4EE4FBFAD27B
:1003430093854E80C29311057580FFD292E54C25AB
:10035300E025E02421F8EB25E028F8E6FE08E6FF97
:1003630051BA8F80C29211057580FFE54E25E0F5E5
:100373004EE54D33F54D7F027E00918D11050BBB8C
:1003830000010AEB64024A70B6AE4DAF4E228E4BAB
:100393008F4CAB05AA049000017C007D0AAF03AE2D
:1003A3000291B88C4D8D4EC3EB954EFFEA954DFEF1
:1003B3007C007D0A91B8AA06AB07E54C25E025E051
:1003C3002421F8AF82EF25E028F8A64D08A64EE5D4
:1003D30082158270021583E582B4FFBDE583B4FF05
:1003E300B822C0E0C0D075D000C004C005C006C0AC
:1003F30007918920B31BE51E151E7002151DE51E0E
:10040300B4FF0BE51DB4FF06751D00751E0030B269
:10041300FDD007D006D005D004D0D0D0E032C0E064
:10042300C0D075D000C004C005C006C007918920A4
:10043300B215051EE51E7002051D6403451D7004FB
:10044300F51DF51E30B2FDD007D006D005D004D07F
:10045300D0D0E032E51E6402451D7029FFFE513500
:100463007F017E0051357F027E005135853137850E
:10047300323885333985343A85351F853620E4F59E
:100483001DF51E80CF227F057E00D3EF9400EE94EE
:1004930000400F7D027CFADCFEDDFAEF1F70EB1EDD
:1004A30080E822D288D28AD2AFD2A8D2AA1115313B
:1004B300AF915780F8C2D5EC30E709B2D5E4C39DBC
:1004C300FDE49CFCEE30E715B2D5E4C39FFFE49E48
:1004D300FE12052CC3E49DFDE49CFC800312052C55
:1004E30030D507C3E49FFFE49EFE22EB9FF5F0EABD
:1004F3009E42F0E99D42F0E89C45F022D083D082F1
:10050300F8E4937012740193700DA3A393F874012C
:1005130093F5828883E473740293B5F006740393AE
:100523006860E9A3A3A3A380D8BC000BBE0029EF96
:100533008DF084FFADF022E4CCF875F008EF2FFFC7
:10054300EE33FEEC33FCEE9DEC984005FCEE9DFE95
:100553000FD5F0E9E4CEFD22EDF8F5F0EE8420D2DC
:100563001CFEADF075F008EF2FFFED33FD4007984B
:100573005006D5F0F222C398FD0FD5F0EA22787F1A
:10058300E4F6D8FD75814F0205C80204A6E493A3DF
:10059300F8E493A34003F68001F208DFF48029E432
:1005A30093A3F85407240CC8C333C4540F4420C87E
:1005B300834004F456800146F6DFE4800B01020415
:1005C300081020408090060DE47E019360BCA3FFD9
:1005D300543F30E509541FFEE493A360010ECF544A
:1005E300C025E060A840B8E493A3FAE493A3F8E439
:1005F30093A3C8C582C8CAC583CAF0A3C8C582C8A5
:10060300CAC583CADFE9DEE780BE0B08C0F9A4B020
:10061300999282F88090BF021D0000021B00000225
:1006230037000A02390005021F0005021300000209
:0C06330015000002170000021900000072
:00000001FF
